:020000040800F2
:10000000005000203D0200083902000837020008B5
:10001000370200083702000837020008000000001D
:10002000000000000000000000000000390200088D
:1000300039020008000000003902000839020008F7
:1000400037020008370200083702000837020008AC
:10005000370200083702000837020008370200089C
:10006000370200083702000837020008370200088C
:10007000370200083702000837020008370200087C
:10008000370200083702000837020008370200086C
:10009000370200083702000837020008370200085C
:1000A000370200083702000837020008370200084C
:1000B000370200083702000837020008370200083C
:1000C000370200083702000837020008370200082C
:1000D000370200083702000837020008370200081C
:1000E000370200083702000837020008370200080C
:1000F00037020008370200083702000837020008FC
:1001000037020008370200083702000837020008EB
:1001100037020008370200083702000837020008DB
:1001200037020008370200083702000837020008CB
:1001300037020008370200083702000837020008BB
:1001400037020008370200083702000837020008AB
:1001500008B540F2023000F060F84FF4417000F052
:100160005CF80223194600220B4800F01BF84FF4FC
:10017000005300220221094800F014F8084B013B0B
:10018000FDD10221044800F03FF84FF4005103482C
:1001900000F03AF8F2E700BF00080140001001400B
:1001A00040420F002DE9F0434FF6E07796469C461B
:1001B0000268436800254FF00F084CFA05F4E40785
:1001C00019D5072DACB28BBF3C4616461E46A4007F
:1001D00098BFA4B208FA04F926EA090604F1020954
:1001E0000EFA09F901FA04F449EA04043443082D2B
:1001F0002CBF2346224601350437102DBFB2DCD177
:1002000002604360BDE8F083C36803EA010221EAAB
:10021000030141EA024101617047430903F1804350
:1002200003F504331A6800F01F00012101FA00F001
:10023000104318607047FEE770470000184C1949DA
:10024000194800225318834203D2135953500432E1
:10025000F8E7164A0021934202D219600433FAE704
:10026000134A144C1368144D43F400731360AC42EA
:1002700003D254F8043B9847F9E7104C104DAC42B8
:1002800003D254F8043B9847F9E7FFF761FF0D4CA0
:100290000D4DAC4203D254F8043B9847F9E700BF38
:1002A000CC02000800000020000000200000002018
:1002B00014ED00E0CC020008CC020008CC020008DB
:0C02C000CC020008CC020008CC020008B0
:040000050800023DB0
:00000001FF
