:020000040000FA
:2000000000500020F100000831010008310100083101000831010008310100080000000055
:200020000000000000000000000000003101000831010008000000003101000831010008D8
:200040003101000831010008310100083101000831010008310100083101000831010008D0
:200060003101000831010008310100083101000831010008310100083101000831010008B0
:2000800031010008310100083101000831010008B504000831010008310100083101000809
:2000A000310100083101000831010008310100083101000831010008310100083101000870
:2000C000310100083101000831010008310100083101000831010008310100083101000850
:2000E0003101000831010008310100085FF808F1002103E0094B5B58435004310848094B8B
:2001000042189A42F6D3084A02E0002342F8043B064B9A42F9D300F027FA70470C19000822
:2001200000000020C8020020C80200200C030020FEE703288CBF022000207047034B1B6877
:200140009B7A13B1024B05221A607047040300201003002070470000014B04221A6070476D
:200160001003002010B500F06FFC214B214A1B68002412689C72D2791F495A721F4A0C60D2
:200180001368204623F4EC4323F0700343F400739BB21360136823F4E04323F040039BB2F0
:2001A00083F0100313600A68154B92B213445B0040221A600B6880229BB203F1005303F501
:2001C00040535B001A6000F02FFE0E4B20461B6893F8301000F058FE204600F008FE0A4B96
:2001E00001222046BDE810401A6001F021BB00BF04030020B8020020505C0040005C0040F2
:2002000004300020DC0200201003002038B5124B05461A681C46127802F07F02212A19D1AE
:2002200000F0ACFCB0B1681E042813D8DFE800F0090507120300094B04E0094B02E0094B85
:2002400000E0094B226800249361548220469847204638BD022038BD040300208D0A000875
:20026000E50A0008A50A0008BD0A0008014901F0D3B800BF44010020014901F0CDB800BF98
:20028000B8020020054B1B689B78072B04D8044901EBC30101F0C0B800207047040300202C
:2002A00094000020014901F0B7B800BFE000002008B5074B1B681B7803F07F03212B02D168
:2002C00000F05CFC08B9022008BD002008BD00BF0403002070477047704770477047704719
:2002E000704770477047000038B5134D09202C6800F05EFB2040114C40F05000286001229E
:200300002046092100F09CF900222046092100F097F900F05FFB0A4BC2B21860094BC0F304
:20032000072083F8292083F82A00074B5A719871BDE8384000F09ABE040C0140000C014004
:20034000C8020020EC00002029010020044A13689BB243F00C031360024B03221A607047EF
:20036000405C0040100300204FF6FB72034B19680A401A604FF43F421A607047405C004058
:2003800010B51E4C072818BF20702378052B32D8DFE803F003060A0E1621FFF7E5FF2AE0CD
:2003A000FFF7E2FF042327E002236370032323E06378013BDBB263706378F3B9042217E0FC
:2003C0000F4A13689BB243F010031360052323700A23637010BD6378013BDBB26370637869
:2003E0005BB94FF6EF73064A11680B4013600622024B1A7010BD0623237010BDCE02002076
:20040000405C0040064B01221A60064A00200649186010604FF4E0520A801A60704700BF7C
:20042000405C0040445C00400803002007B514238DF8043000238DF805308DF8063001A8E8
:2004400001238DF8073000F0FBF903B05DF804FB10B500F0CBFA094B00241B689C72FFF758
:20046000D1FF074B074A1C604FF43F431380064A1360FFF7DBFF054B1C6010BD04030020E2
:20048000445C004008030020405C00401003002007B514238DF8043001A800238DF8053010
:2004A0008DF806308DF8073000F0CAF903B05DF804FB000070B5274D274C2B68274E9BB2AA
:2004C00023802288338813405B0505D54FF6FF332B60234B5B689847228831880A40900434
:2004E00044BF4DF6FF732B6023880B40DA0405D54EF6FF7300202B60FFF742FF228833880E
:2005000013401B0504D5FFF721FF4FF2FF732B60228831880A40900507D54FF6FF53114A2B
:200520002B6013780133DBB2137023880B40DA0505D54FF6FF6307202B60FFF721FF228899
:20054000338813401B0403D5BDE8704000F0DCBC70BD00BF445C0040CC02002008030020D4
:20056000000000200C03002073B500F0A3F800F0C5F800F0F3F8FFF7B7FE00F003F900F06A
:200580003BF90128044602D0022833D008E0009001464FF4A0230522264800F063F842E0EE
:2005A0000124244800944FF4A0230522214600F059F8214800F0F4F828B100F04BF8041CD0
:2005C00018BF01242FE01D4800F0EAF858B3F4E701224FF4801311461648009600F042F885
:2005E00000F0E8FB08B100F0EBFB0135052DEFD9002CEDD1114800F0D3F808B10F4804E077
:200600000D4800F0CDF818B10B4800F05FF90DE0012100914FF4A0230522064800F022F847
:2006200000F066F902E000250126DFE7002002B070BD00BF000C01400050000800200008EC
:20064000B2FA82F20123520903FA01F11201914001617047024B1868C0F30020704700BFF9
:20066000080C01402DE9F8439DF820901446C9F10105EDB22A46074688461E46FFF7E0FF12
:20068000B4B1334613B100BF013BFBE74A4641463846FFF7D5FF334613B100BF013BFBE762
:2006A0002A4641463846013CFFF7CAFFE4B2E7E7BDE8F8830D4B0E491A6842F001021A6065
:2006C00008680C4A02400A601A6822F0847222F480321A601A6822F480221A600B68002293
:2006E00023F4FE030B60044B1A60704700100240041002400000FFF808100240154B1A681C
:2007000042F001121A601A6812489203FBD5124A12211160A2F6FC72116841F4E81141F4F7
:2007200080611160016841F080710160196811F0407FFBD0116841F00201116011680907C8
:20074000FCD59A6942F4FE729A61DA6942F40002DA6170470010024000200240064B074A61
:200760001A604FF08072DA60054A136823F0F00343F0100313607047040C0140080C0140AE
:20078000000C0140054B1A68D1075EBF1A6842F001021A601A689207FCD57047001002401F
:2007A00003680348184000F160435842584170470000FE2F034A43681060026882F30888A9
:2007C000184700BF08ED00E0084AD36943F0C053D361074B1A6842F480721A60054A1085C4
:2007E0001A6822F480721A60704700BF0010024000700040006C004044F24C210E4B10B510
:20080000DA6942F0C052DA610C4A128D92B28A42194607D044F24D239A4201D1022402E07F
:20082000002407E001240020FFF7CEFFCB6923F0C053CB61204610BD00100240006C0040EE
:20084000174B30B5DA684378D243C2F30222C2F1040103FA01F10F23D340827813400278B3
:200860000B4302F0030102F0FC0202F1604202F56142D2F80043CD001B01AB40FF21A9402B
:2008800063400B406340C2F8003303780122590903F01F0302FA03F3024A42F8213030BD0F
:2008A00000ED00E000E100E0074B4FF0FF32C3F88020C3F88420C3F88021C3F8842104224C
:2008C00043F8F02C704700BF00E100E010B50446064B80221A60FFF7DBFDFFF7E5FFFFF770
:2008E000E9FE2046BDE81040FFF764BF10200240024A034BDA6000BFFDE700BF0400FA05F2
:2009000000ED00E00A4B10B51A680A4C02221A602268084912F0010FFAD1074A106042229D
:200920001A600A6812F00102FBD11A60012010BD102002400C2002401420024073B58BB2D7
:2009400000930B0C01930F4B01240F4E1A681C6034680D4D14F0010FFAD1019CA4B24480F3
:200960002C68E607FCD4009CA4B204802C68E407FCD422F001021A6000680B1A5842584112
:2009800002B070BD102002400C200240014B80221A60704710200240034B044A1A6002F1FE
:2009A00088321A60704700BF04200240230167450728C8BF08380F23800003FA00F0C043BF
:2009C00070470000024B188800F5003080027047E0F7FF1F044B1B88802B8CBF4FF4006095
:2009E0004FF48060704700BFE0F7FF1F0D4A00230221137053709370D370117153710A4AA6
:200A00000A4913600A4A13800A4A11600A4A01F588411160094A03211370094A1170094ABF
:200A2000137070471D0B0020180B0020000C0020160B0020C4020020C00200201C0B002075
:200A4000D0020020230B002008B50E4B0E481A790021D2B2012A016008D102221A71197015
:200A6000FFF722FFBDE80840FFF7E0BC12F0FD0F06D002221A711970BDE80840FFF738BFEA
:200A800008BD00BF1D0B0020180B002020B9034B01221B681A827047014870470403002000
:200AA000210B002020B9034B06221B681A82704701487047040300201D0B0020064B1B6882
:200AC00030B9D9885A8A8A1A1A82044B198070475B8A03481844704704030020160B00205E
:200AE00014030020084A30B91268084B518A1B885B1A13827047064B12681868054B528A01
:200B00001B6818441044704704030020160B0020180B0020C40200202DE9F041134B144E53
:200B20001B783468022B04F100640CBF04F5A04404F500542046FFF7E5FE0E4FDFF83880E0
:200B400000253B880B499BB29D4206DA55F808106019FFF7F3FE0435F3E70B889AB23368FB
:200B60001344336000230B80BDE8F0811C0B0020180B0020160B002014030020F8B581494E
:200B8000814C0120087023790022DBB2022B22705AD108707D490968487801282AD1C888D7
:200BA000002800F0C6807A48097B026001294FF0030222710BD002291AD1764B1A70764A32
:200BC000764B1A60FFF7DEFDFFF7E6FE0BE07449724A11606F4A1370FFF7D4FDFFF7DCFE87
:200BE0006D48FFF78FFE44F24D20FFF7EDFDC3E00A2362E0022821D109232371CA88694B46
:200C000069481A801A8892B202801B884A889BB253435F4A13600B7B012B03D0022B09D121
:200C20005D4A00E05E4A5D4B1A60FFF7CBFE5F4B1860A1E00A23237103239CE006283CD064
:200C4000032819D005283CE0032B0BD14F4A12685278032A04D105232371FFF75DFF8BE0D5
:200C6000052A2EE0042B09D151490878022801BF032362700B70052323717DE0052B14D189
:200C8000424B1A685378012B08D1D3880BB10323F2E706232371FFF779FE6DE0062B4ED099
:200CA000032B4CD0052B63D149E0062B0BD1374909684978032903D10823237122705BE012
:200CC000052955D1D8E7072BF6D0082BD4D0092B3DD12E4B1A685378022B2ED1D08840B3B3
:200CE000304E528833882A4D9BB253432B4F2B60D7F800C0DFF8B4E02B6832886344DEF8BE
:200D0000001092B213448B42274903D833889BB20B801AE0DEF800203B682D68D31A5B1BF2
:200D20009BB20B800B889BB2984208D800230B8005E00A23237109231DE0062B01D102239C
:200D40009AE7032B01D0052B12D1092394E70A2B0ED10E4B1B685B78032B01D10A238BE7F7
:200D6000052BFBD0042B03D102232371002302E00A2323710F2323702078B0FA80F0400936
:200D8000F8BD00BF230B00201D0B002004030020180B00201C0B002000200008C40200208A
:200DA00000500008140B0020160B0020C0020020D0020020014B1878704700BF230B0020E7
:200DC00000BFFDE7800000F1804000F5B8400368CA0623F4E04323F040039BB248BF83F0C0
:200DE00010038A0648BF83F0200303607047800000F1804000F5B840036823F4804323F023
:200E000070039BB283F4405303607047800000F1804000F5B840036823F4E24323F07003A3
:200E20001B041B0C03607047FFF7F0BF800000F1804000F5B84003685B0406D548F68F73AA
:200E40000268134043F4804303607047800000F1804000F5B84003685B0606D548F68F73BC
:200E60000268134043F0400303607047044B1B689BB203EBC000034B03445B001960704738
:200E8000505C0040023000200D4B3E291B689BB203EBC0000B4B03444FEA430209D94B0986
:200EA000C80604BF03F1FF339BB29B0243F4004304E04B08C90748BF01339B02136070470E
:200EC000505C004006300020054B1B689BB203EBC00000F1005000F54050400000887047BD
:200EE000505C0040FFF7F0BF044B1B689BB203EBC000034B03445B0018887047505C004061
:200F000004300020FFF7F0BF2DE9F843DFF858814E4FC1463B684E4A99B21B04118040F1CC
:200F2000928047F6FF733B60138803F00F0388F80030002B60D1474C474E2368474D03F46B
:200F400040533380236803F030032B80236823F4804323F070039BB283F4005323602368DF
:200F600023F4E04323F040039BB283F0200323601388D80602D52368190607D548F60F73E5
:200F800022681340236000F06FFC12E01A0507D540F68F7322681340236000F06BFA08E0D4
:200FA0001B04B7D540F68F7322681340236000F0DDFB2368328823F4804323F070039BB234
:200FC000D70448BF83F480539604224A48BF83F4005313601368298823F4E04323F04003DF
:200FE0009BB2CC0648BF83F01003880648BF83F020031360BDE8F8839A0002F1804202F541
:20100000B8421468210409D540F68F711068013B01401160124A52F82330984722067FF547
:2010200079AF48F60F7199F80020930003F1804303F5B8431868013A01401960094B53F8C8
:201040002230984766E7BDE8F88300BF445C0040CC020020005C0040D2020020D4020020DF
:201060005000002034000020E0020020064B074A0749136002221A72064B074A1360074A2F
:201080001B681160184700BFE4020020040300206C00002000000020DC0200200003002044
:2010A00010B5064C18B9236801221A8210BD044B1B681B68984720680A3010BD0403002047
:2010C0000003002010B5064C18B9236801221A8210BD044B1B689B68984720680C3010BDA9
:2010E000040300200003002010B5204A18B9136802221A8210BD1E4814680023038021787D
:20110000024611F07F010DD1637A990644BF0221017013F0400F037814BF23F0010343F02B
:20112000010314E0012920D002291DD1217901F00F039B0003F1804303F5B84311F0800F12
:201140001B6806D003F03003102B07D10123137004E003F44053B3F5805FF6E7054B1B68B1
:201160001B699847024810BD184610BD040300200A030020000300202DE9F843234FDFF8B9
:20118000A0803C68238ABBB9267A042E14D120480278012A0BD11F4A11681F4A89B20A44F6
:2011A000520013603022A8F80020037029E01023A8F80030072624E0A58AAB4294BF04260F
:2011C00002269D4228BF1D46A3692846984781460020FFF787FE2A460146484600F072FB61
:2011E00029460020FFF742FE238A4FF440525B1B2382638A1D443023A8F80030074B6582E3
:201200001A803B681E72BDE8F88300BF04030020240B0020505C004002300020D20200207A
:20122000D402002010B50A4B0A491B6849789A7891420AD3D97841B99C8834B99A72064B8C
:201240001B685B689847204610BD022010BD00BF04030020900000200003002038B50E4A49
:201260000E4D12682B6892699978187990472B689A7A7AB170B95A7962B9DC7854B9084BF5
:201280001B68DB6898472B6820461A79DA729A781A7338BD022038BDDC0200200403002001
:2012A0000003002038B52E4B1B68187810F07F0004D15A7A22F020025A7238BD02284DD12D
:2012C0005A88002A4BD15A79002A48D11979254D21F08000840004F1804202F5B842126895
:2012E0002D7811F0800F14BF02F0300202F44052A84233D292B39B7A83B304F1804404F509
:20130000B8440A0623680CD503F03003102B1FD1C4B22046FFF79AFD30212046FFF752FD9F
:2013200016E003F44053B3F5805F11D128B90E4B93F83010FFF7A8FD01E0FFF777FD23684E
:2013400023F4804323F070039BB283F440532360064B1B685B699847002038BD022038BDB0
:201360000403002090000020000000200003002038B51D4B1D4D18682D78017921F0800460
:20138000A30003F1804202F5B842126811F0800F14BF02F0300202F44052AC4221D24488CD
:2013A000FCB9F2B1827AE2B103F1804303F5B8431A6809064BBF22F4E04222F4804222F0DF
:2013C000400222F070024BBF92B292B282F0100282F480521A60064B1B689B699847002098
:2013E00038BD022038BD00BF04030020900000200003002008B5064B1A68537A43F0200375
:201400005372044B1B68DB699847002008BD00BF0403002000030020054B10B51C68628A9F
:2014200018B98B889B1A238210BD0868104410BD0403002008B50B4B002093F83010FFF7F5
:2014400023FD094B1B68187A082806D1074B4FF480521A80064B10221A80A0F109035842A7
:20146000584108BD0000002004030020D2020020D402002073B59D4D9D4E2B6831681A7A20
:20148000092A13D09B4A89B20A4452001288520002F1804202F5C042117819705178597038
:2014A00091885980118999809289DA8001221A72DA885C78002A59D11A7812F07F023BD1B8
:2014C000092C02D1FFF7AEFE45E0052C10D193F90220002A01DA082345E0DA78002AFAD1E1
:2014E0009A88002AF7D19B7A002B00F01981F2E7032C13D19A78012A07D07F4B20461B685B
:201500005B69984703282AD12CE09A88002AF4D15B7A9806F1D5FFF76DFF1CE0012CECD164
:201520009A78012AE9D19A88002AE6D15B7A9906E3D5FFF7B7FE0EE0012A04D10B2CDCD108
:20154000FFF78CFE07E0022AD7D1012CF1D0032CD3D1FFF70DFF002800F0E280CDE7002837
:20156000B9D1DDE009232A681372D5E0062C1AD11A78520640F0E280DA785F4B012A02D199
:201580001B68DB6976E0022A02D11B681B6A71E0032A02D11B685B6A6CE0212A40F0CE8079
:2015A0001B689B6A66E0002C40D15988002940F0C5805A6822F0FF02B2F5003F40F0BE8078
:2015C0001A7812F07F0204D19B88002B00F0B480B4E0012A0AD1484A1879126892699047A6
:2015E000002840F0AB802B689B7A1BE0022A40F0A5801A79414802F00F018B0003F18043E4
:2016000003F5B8431B68007812F0800F14BF03F0300303F44053814280F0908012F0700F04
:2016200040F08C80002B40F0878087E0082C05D11B785B0640F08280314B1DE00A2C7DD178
:201640001A7802F07F02012A78D19A7A002A75D05988002972D15A6822F0FF02B2F5803F06
:201660006CD1254A1879126892699047002865D1244B01E0002B61D02A6800245482936157
:201680002046984720464FF6FF712B681A8A8A4201D1092203E0022800D012B908221A728C
:2016A0003AE093F90010002930DAD988124C01910198824202D9019A1A8210E08A420ED2E5
:2016C000216891F83000824201D2002105E092FBF0F100FB112212B901210B4A1170226842
:2016E00092F830209A82FFF747FD15E004030020505C004004300020DC02002090000020B0
:20170000A1100008C5100008240B002003221A72104B4FF440521A80FFF78CFE02B070BD0A
:2017200032680D4B92B213445B0000221A600B4B30221A80062316E7094B9DE7094B2A68FF
:201740001B6850781B69984703289CD1064B1B689FE700BFD202002002300020D4020020EE
:20176000E9100008DC02002004030020F8B52A4D2C68237A032B01D0052B3FD1A169268AF5
:20178000A9B1A6B1A38A9E4228BF1E4630468847238A07469B1B2382638A0020334463823D
:2017A000FFF7B0FB32460146384600F09DF8238A53B11A4B00214FF4405208461A80FFF7DC
:2017C00055FB174B30221A80A38A228A93422B6801D8032201E012B105221A720BE00621C3
:2017E0001972104B1968104B89B20B445B001A600B4B30221A802B681B7A06E0072B03D172
:201800000A4B1B68DB68984708232A681372BDE8F840FFF70FBE00BF04030020D202002012
:20182000D4020020505C004002300020DC02002030B50B4B00221C78A2420CD248F68F7185
:2018400002F1805303F5B8539B001D682940114319600132F0E7034B40F08000186030BDFC
:20186000900000204C5C004010B5134C23681A7A022A01D0042A04D1FFF77EFC23681B7AFD
:2018800013E0062A10D15A78052A09D11A78520606D19878FFF7CCFF084B1B681B6A98479D
:2018A000074B1B689B689847082322681372BDE81040FFF7BFBD00BF0403002000030020C7
:2018C000DC02002010B501F10051013201F540515210490000239A4205D030F8024B21F83B
:2018E00023400133F7E710BD10B501F10051013201F540515210490000239A4205D051F81C
:20190000234020F813400133F7E710BD5104000865010008D9020008DB0200080D02000870
:20192000B1020008330100086D0200087902000885020008A5020008000000004000000038
:20194000D7020008D7020008D7020008D7020008D7020008D7020008D7020008D70200087F
:20196000D7020008D7020008D7020008D7020008D7020008D7020008DD0200083D010008F4
:20198000DF020008E1020008E3020008E5020008D5020008550100085901000801010000F6
:2019A000E80000200400000032010020120000004C010020140000001901002010000000EB
:2019C0006001002080000000E00100206C0000004C0200206C00000012010001000000406B
:2019E000AF1E0300010201020301000029010020090000000403090409022D0001010080EC
:201A0000320904000000FE0102040904000100FE0102050904000200FE010206092103FF2C
:201A2000000008100110034C004C004D002000300030003300092103FF0000081001120388
:201A40004C006500610066004C00610062007300CC0000201200000014034D006100700059
:201A60006C00650020003000300033008003530054004D00330032006400750069006E0056
:201A80006F00200062006F006F0074006C006F0061006400650072002000760031002E0097
:201AA0003000200020004500520052004F0052002E002000550070006C006F006100640079
:201AC000200074006F002000520041004D0020006E006F00740020007300750070007000AA
:201AE0006F0072007400650064002E006C03530054004D00330032006400750069006E0022
:201B00006F00200062006F006F0074006C006F0061006400650072002000760031002E0016
:201B2000300020002000550070006C006F0061006400200074006F00200046006C0061009A
:201B40007300680020003000780038003000300035003000300030006C03530054004D0022
:201B6000330032006400750069006E006F00200062006F006F0074006C006F00610064006D
:201B8000650072002000760031002E00300020002000550070006C006F0061006400200084
:201BA00074006F00200046006C006100730068002000300078003800300030003200300072
:141BC00030003000EC0000202D00000000500020000C0020DC
:00000001FF
